:020000040800F2
:1000000018040020010100087F02000847020008D0
:100010007D020008690100089D030008000000003F
:100020000000000000000000000000009D02000829
:10003000990100080000000081020008490300083F
:100040001B0100081B0100081B0100081B01000820
:100050001B0100081B0100081B0100081B01000810
:100060001B0100081B0100081B0100081B01000800
:100070001B0100081B0100081B0100081B010008F0
:100080001B0100081B0100081B0100081B010008E0
:100090001B0100081B0100081B0100081B010008D0
:1000A0001B0100081B0100081B0100081B010008C0
:1000B0001B0100081B0100081B0100081B010008B0
:1000C0001B0100081B0100081B0100081B010008A0
:1000D0001B0100081B0100081B0100081B01000890
:1000E0001B0100081B0100081B010008DFF80CD0F1
:1000F00000F018F800480047010400081804002028
:100100000648804706480047FEE7FEE7FEE7FEE7B1
:10011000FEE7FEE7FEE7FEE7FEE7FEE74D03000829
:10012000ED000008064C074D06E0E06840F00103D2
:1001300094E8070098471034AC42F6D3FFF7DAFF93
:1001400020040008400400084FF40051014800F06A
:1001500078B80000001001404FF40051014800F051
:100160006EB8000000100140FEE70000084801687A
:1001700021F080710160016841F0807101600548E3
:1001800000214160016841F00101016070470000F9
:10019000FCED00E0001000E070470000F0B5CA7808
:1001A000002502F00F03D20601D58A7813430A789E
:1001B0004FF00F0E12F0FF0F4FF001021CD0046839
:1001C0000F8802FA05F63740B74211D14FEA850C85
:1001D0000EFA0CF724EA070703FA0CF43C43CF7835
:1001E000282F02D0482F02D002E0466100E00661CD
:1001F0006D1C082DE4D304600C88FF2C1ED94468C4
:100200005FF0000606F1080702FA07F50F882F4095
:10021000AF420FD14FEA860C0EFA0CF7BC4303FA3B
:100220000CF73C43CF78282F00D14561CF78482F79
:1002300000D10561761C082EE4D34460F0BD416115
:10024000704701617047FEE738B50121102000F0CA
:1002500019F810208DF803004402ADF80040032087
:10026000054D8DF8020069462846FFF797FF2146A5
:100270002846FFF7E6FF38BD00100140FEE7704753
:1002800070470000044A0029916901D0014300E051
:1002900081439161704700000010024070470000E8
:1002A0000CB50021264801910091026842F4803289
:1002B00002604FF4A063026802F400320092019AD7
:1002C000521C0192009A12B9019A9A42F3D1026823
:1002D000920333D5012100911A490A6842F01002B5
:1002E0000A600A6822F003020A600A6842F0020209
:1002F0000A604168416041684160416841F4806141
:100300004160416821F47C114160416841F4E81189
:100310004160016841F08071016001688901FCD58C
:10032000416821F003014160416841F002014160F0
:100330004168C1F381010229FAD10CBD00910CBDC5
:100340000010024000200240704700000F4810B526
:10035000016841F00101016041680D4A11404160AE
:1003600001680C4A11400160016821F4802101609C
:10037000416821F4FE0141604FF41F018160FFF7E5
:100380008FFF05494FF00060086010BD001002406B
:100390000000FFF8FFFFF6FE08ED00E0FEE702E0D8
:1003A00008C8121F08C1002AFAD170477047002000
:1003B00001E001C1121F002AFBD1704730B50400D3
:1003C00007D04FF47A75641E03D3284600F002F874
:1003D000F9E730BD10B500280BD006494A68064B36
:1003E000064C1B68B3FBF4F343434868801A9842F9
:1003F000FBD310BD001000E00000002040420F00C1
:10040000FFF7B4FEFFF720FFFFF7A6FEC820FFF7B7
:10041000D5FFFFF799FEC820FFF7D0FFF4E70000F3
:100420004004000800000020140000009E030008A3
:10043000540400081400002004040000AE03000867
:1004400000A24A04000000000000000001020304B2
:04045000060708098A
:04000005080000ED02
:00000001FF
